:03000000028E2A43
:108E2A0085A8F0E4F5A878B0E6645A601E85F0A833
:108E3A0078FFE4F6D8FD9000007F007E0CE4F0A3F2
:108E4A00DFFCDEFA759C0178B0765A7581CB028E0A
:018E5A009681
:10A17A005394FE5394E74394185394F84394024338
:09A18A0094014387020000002249
:108A4F00439001E59030E3FB5390FB439020E5907A
:108A5F0030E7FB5390BF5390DF5390FE43F9104321
:108A6F0095107830E6700B760175930575930A753E
:108A7F00920112A3AC439001E59030E3FB439006C3
:108A8F00129C59439001E59030E3FB5390FB4390C8
:108A9F0020E59030E7FB5390BF5390DF5390FE12C9
:108AAF00A385439120439602439802D2ACD2AFE5FF
:108ABF009B30E375439B08439001E59030E3FB4304
:108ACF00900678B8E66401703078B9E6C3940A402E
:108ADF0004E4F6802A78B906439001E59030E3FB71
:108AEF005390FB439020E59030E7FB5390BF53909A
:108AFF00DF5390FE12A2EA800B78BAE6B401057F2D
:108B0F00011285DA439001E59030E3FB5390FB436C
:108B1F009020E59030E7FB5390BF5390DF5390FECA
:0A8B2F0075930575930A75920122F3
:109AAF00E4900000F0128A4FE4900759F07831E605
:109ABF00FF64046004EFB4030678317603800AEF85
:109ACF006003B40104783176027831E6D39406400E
:109ADF00057F0312A3617831E624FA500A24FC6053
:109AEF000B24FB600C80EF12459A80EA125FF38023
:069AFF00E5129EAE80E0BE
:10A0E000D001D002C086C085C084758600C002C081
:10A0F0000122D001D002D084D085D086C002C00118
:01A10000223C
:1075EF00C1C80000C1A00000C1700000C120000090
:1075FF00C0E00000C04000000000000040A00000FC
:10760F0040E00000412000004170000041A0000058
:10761F0041C8000041F00000420C00004218000079
:10762F0042200000422C0000423C00004248000073
:10763F00425400004264000042700000427C00008F
:10764F0042860000428C00004296000042A00000DB
:10765F00C2980000C2780000C2440000C2180000A7
:10766F00C1FC0000C1BC0000C1980000C140000077
:10767F00C1280000C0F00000C0400000BF80000023
:10768F0000000000BFC00000C0900000C0E000007C
:10769F00C1080000C1380000C18C0000C1B000005B
:1076AF00C1D80000C20A0000C22A0000C242000076
:1076BF00C2700000C28C0000C2AC0000C2D2000039
:1076CF0000000000000000000000000000000000AB
:1076DF00000000000000000000000000C04000009B
:1076EF00BF0000000000000040000000400000004C
:1076FF004020000040400000C0200000BF8000007C
:10770F003F0000003FC000004019999A4040000020
:10771F0040600000C0600000C0200000BF000000FB
:10772F00000000003FB33333400000004020000052
:10773F00C0900000C0600000C0400000BFC000004B
:10774F00C0200000C0000000C0000000C0A000006A
:10775F00C0800000C0600000C0000000C02000001A
:10776F00C0200000C0200000C0C00000C09000007A
:10777F00C0600000C0400000C0200000C02000001A
:10778F00C0200000C0E00000C0C00000C0A000008A
:10779F00C0900000C0800000C0600000C06000000A
:1077AF00C1080000C0F00000C0C00000C0A0000071
:1077BF00C0A00000C0900000C0900000C1180000E1
:1077CF00C1080000C0E00000C0D00000C0C0000031
:0877DF00C0B00000C0B00000C2
:0BA38500439180439840D2A9D2AF2240
:1095B70043DA0212928490009B122BE078C4122B9C
:1095C700AB90009BE0F8A3E0F9A3E0FAA3E0FBC3AC
:1095D700122B3A90009BE0FCA3E0FDA3E0FEA3E082
:1095E7004003FF800F24FFFFEE34FFFEED34FFFD45
:1095F700EC34FFFC78C4122BC7C3EF9BFFEE9AFE37
:10960700ED99FDEC98FC90009B122BE090009BE0FD
:0A961700FCA3E0FDA3E0FEA3E0FFCA
:019621002226
:10A2D9005395F1439508439708439501D2ABD2AF03
:01A2E9002252
:10A2EA005395F1439506439708439501D2ABD2AFF4
:01A2FA002241
:0693890090004E122BE0E3
:10938F00E4FFFEFD7C4090004EE0F8A3E0F9A3E07F
:10939F00FAA3E0FB1224D2122734900052EEF0A36E
:1093AF00EFF0E4FFFEFDFC90004EE0F8A3E0F9A320
:1093BF00E0FAA3E0FB122678900052E0FEA3E0FF54
:1093CF004002801E12A379EFF4FFEEF4FEEF2401AA
:1093DF00FFE43E900052F0A3EFF0900052E0FEA3A6
:0E93EF00E0FF14F5D8EF24FFEE347FFF8FD996
:0193FD00224D
:067B780090004E122BE00C
:107B7E0090005274FFF0900054F0E4900053F0FF28
:107B8E00FE7D207C4190004EE0F8A3E0F9A3E0FAE0
:107B9E00A3E0FB1224D2122734AD07AC06EC12265A
:107BAE00FBE4FBFA792078411225DB90004E122B74
:107BBE00E0E4900052F0900052E0FFC3941C507B22
:107BCE00EF25E025E024EFF582E43475F583122BE2
:107BDE00B790004EE0F8A3E0F9A3E0FAA3E0FB12A1
:107BEE002678700A78B37601900052E0FF22E4788E
:107BFE00B3F6900052E025E025E024EFF582E43460
:107C0E0075F583122BB790004EE0F8A3E0F9A3E0D0
:107C1E00FAA3E0FB1223DD12A354900053E0FB0401
:107C2E00F0EB25E025E0248AF582E43405F5831295
:107C3E002BE0900052E004F0027BC4E4900052F07E
:107C4E00900052E0FFC3941C505CEF25E025E02429
:107C5E008AF582E43405F583E0FCA3E0FDA3E0FEA3
:107C6E00A3E0FF90058AE0F8A3E0F9A3E0FAA3E011
:107C7E00FB1226784028900052E0FB25E025E024F8
:107C8E008AF582E43405F583E0FCA3E0FDA3E0FE73
:107C9E00A3E0FF90058A122BE0900054EBF09000C9
:107CAE0052E004F0809A900054E0FF7002805DEF85
:107CBE00B41C028051900054E0FB25E025E02486A0
:107CCE00F582E43405F583E0FCA3E0FDA3E0FEA31A
:107CDE00E0FF900055122BE0EB25E025E0248EF519
:107CEE0082E43405F583E0FCA3E0FDA3E0FEA3E00F
:107CFE00FF900055E0F8A3E0F9A3E0FAA3E0FB1231
:107D0E00267860025006E478B2F6800478B27601E6
:057D1E00900054E0FF9D
:017D2300223D
:0659650090004E122BE041
:10596B0078B3E6B40116E4F6900052E025E025E0AA
:10597B00245FF582E43476F583022BB7900052E076
:10598B00FB25E025E024EFF582E43475F583122B3B
:10599B00B7900057122BE0EB25E025E0245FF58252
:1059AB00E43476F583122BB7900063122BE0900052
:1059BB0052E06003025A639075F3122BB790005FAD
:1059CB00122BE0907663122BB790006B122BE090AA
:1059DB000057E0F8A3E0F9A3E0FAA3E0FB90005F27
:1059EB00E0FCA3E0FDA3E0FEA3E0FF1223DDC00477
:1059FB00C005C006C007900057E0F8A3E0F9A3E08C
:105A0B00FAA3E0FB90004EE0FCA3E0FDA3E0FEA3B5
:105A1B00E0FF1223DDD003D002D001D0001225DB32
:105A2B00C004C005C006C007900063E0F8A3E0F90E
:105A3B00A3E0FAA3E0FB90006BE0FCA3E0FDA3E086
:105A4B00FEA3E0FF1223DDD003D002D001D0001261
:105A5B0024D2900063025C8D900052E0641C6003C2
:105A6B00025B0F90765B122BB790005B122BE090D2
:105A7B0076CB122BB7900067122BE090005BE0F80F
:105A8B00A3E0F9A3E0FAA3E0FB900057E0FCA3E04E
:105A9B00FDA3E0FEA3E0FF1223DDC004C005C0069A
:105AAB00C00790005BE0F8A3E0F9A3E0FAA3E0FBEA
:105ABB0090004EE0FCA3E0FDA3E0FEA3E0FF122369
:105ACB00DDD003D002D001D0001225DBC004C0050D
:105ADB00C006C007900067E0F8A3E0F9A3E0FAA3C3
:105AEB00E0FB900063E0FCA3E0FDA3E0FEA3E0FF7E
:105AFB001223DDD003D002D001D0001224D29000AB
:105B0B0067025C8D900052E0FB25E025E024EBF56D
:105B1B0082E43475F583122BB790005B122BE0EB0C
:105B2B0025E025E0245BF582E43476F583122BB770
:105B3B00900067122BE0900052E0FB25E025E0245B
:105B4B00F3F582E43475F583122BB790005F122BBB
:105B5B00E0EB25E025E02463F582E43476F583124F
:105B6B002BB790006B122BE078B2E6640160030256
:105B7B005C07F6900057E0F8A3E0F9A3E0FAA3E086
:105B8B00FB90005FE0FCA3E0FDA3E0FEA3E0FF12AF
:105B9B0023DDC004C005C006C007900057E0F8A382
:105BAB00E0F9A3E0FAA3E0FB90004EE0FCA3E0FDDC
:105BBB00A3E0FEA3E0FF1223DDD003D002D001D07F
:105BCB00001225DBC004C005C006C007900063E0CF
:105BDB00F8A3E0F9A3E0FAA3E0FB90006BE0FCA3D1
:105BEB00E0FDA3E0FEA3E0FF1223DDD003D002D043
:105BFB0001D0001224D2900063025C8D90005BE018
:105C0B00F8A3E0F9A3E0FAA3E0FB900057E0FCA3B4
:105C1B00E0FDA3E0FEA3E0FF1223DDC004C005C03E
:105C2B0006C00790005BE0F8A3E0F9A3E0FAA3E05D
:105C3B00FB90004EE0FCA3E0FDA3E0FEA3E0FF120F
:105C4B0023DDD003D002D001D0001225DBC004C06D
:105C5B0005C006C007900067E0F8A3E0F9A3E0FADF
:105C6B00A3E0FB900063E0FCA3E0FDA3E0FEA3E058
:105C7B00FF1223DDD003D002D001D0001224D2902A
:105C8B000067E0F8A3E0F9A3E0FAA3E0FB1223E13D
:105C9B00900053122BE0900053E0FCA3E0FDA3E037
:045CAB00FEA3E0FF75
:015CAF0022D2
:1096220078B4122BC71223DD12A354E4FBFA79207B
:1096320078411226784028439001E59030E3FB53AD
:1096420090FB439020E59030E7FB5390BF5390DFAF
:109652005390FE12A2D978BA7601E478B8F6224382
:109662009001E59030E3FB5390FB439020E590306E
:10967200E7FB5390BF5390DF5390FE12A2EA78B8F3
:079682007601E478BAF6223C
:0677E70090004E122BE0A1
:1077ED0078BDE6900052F0E4FFFE7DC87CC19000AC
:1077FD004EE0F8A3E0F9A3E0FAA3E0FB12267860CF
:10780D00025013900052E075F01CA424CFF582E5D0
:10781D00F034760279A8E4FFFE7DC87CC190004E5D
:10782D00E0F8A3E0F9A3E0FAA3E0FB1226786031BB
:10783D00402FE4FFFE7D207C4190004EE0F8A3E058
:10784D00F9A3E0FAA3E0FB12267860025013900032
:10785D0052E075F01CA424D3F582E5F0347602795C
:10786D00A8E4FFFE7D207C4190004EE0F8A3E0F9F6
:10787D00A3E0FAA3E0FB1226786031402FE4FFFE6F
:10788D007DA07C4190004EE0F8A3E0F9A3E0FAA3BF
:10789D00E0FB12267860025013900052E075F01C48
:1078AD00A424D7F582E5F034760279A8E4FFFE7DB5
:1078BD00A07C4190004EE0F8A3E0F9A3E0FAA3E02C
:1078CD00FB1226786031402FE4FFFE7DF07C419065
:1078DD00004EE0F8A3E0F9A3E0FAA3E0FB1226784E
:1078ED0060025013900052E075F01CA424DBF58269
:1078FD00E5F034760279A8E4FFFE7DF07C4190003E
:10790D004EE0F8A3E0F9A3E0FAA3E0FB12267860BD
:10791D0030402EE4FFFE7D487C4290004EE0F8A3FF
:10792D00E0F9A3E0FAA3E0FB122678600250129072
:10793D000052E075F01CA424DFF582E5F03476806A
:10794D005AE4FFFE7D487C4290004EE0F8A3E0F93A
:10795D00A3E0FAA3E0FB1226786030402EE4FFFE90
:10796D007D867C4290004EE0F8A3E0F9A3E0FAA3F7
:10797D00E0FB12267860025012900052E075F01C68
:10798D00A424E3F582E5F034768010900052E07582
:10799D00F01CA424E7F582E5F03476F583122BB7BD
:1079AD0090004EE0F8A3E0F9A3E0FAA3E0FB122368
:0179BD00E1E8
:0179BE0022A6
:105CB000E4FF12A1AC901400E04408F0129F53904E
:105CC000004BEEF0A3EFF0129F5390004BEEF0A3C9
:105CD000EFF090BFFDE4935403FE90BFFCE493FD0E
:105CE000EDFFAC06E41226FBC004C005C006C007E9
:105CF00090004BE0FCA3E0FDE41226FBA804A905FC
:105D0000AA06AB07D007D006D005D0041223DD7B4E
:105D1000BD7A527906783F1224D2900043122BE0CC
:105D2000E4FFFE7DF07C41900043E0F8A3E0F9A39E
:105D3000E0FAA3E0FB1223E1900043122BE0900075
:105D400043E0FCA3E0FDA3E0FEA3E0FF12273478CC
:105D5000CAA607E4FFFE7DC87C42900043E0F8A39A
:105D6000E0F9A3E0FAA3E0FB1224D21227347C006E
:105D70007D6412293778CBA60578BCE6701A9000AE
:105D800043E0FCA3E0FDA3E0FEA3E0FFE4FBFA791F
:105D9000DC78C11223E1805178C9E6FFFCE41227C8
:105DA00000E4FBFA79C878421225DBC004C005C0C4
:105DB00006C00778C8E6FCE4122700D003D002D062
:105DC00001D0001223E1900047122BE0900043E045
:105DD000FCA3E0FDA3E0FEA3E0FFA3E0F8A3E0F94D
:105DE000A3E0FAA3E0FB1223DD900043122BE0E4D2
:105DF000FFFEFD7CC0900043E0F8A3E0F9A3E0FAC9
:105E0000A3E0FB122678500778BD7601025FE9E433
:105E1000FFFEFD7CC0900043E0F8A3E0F9A3E0FAA8
:105E2000A3E0FB1226784021E4FFFE7D807CBF903A
:105E30000043E0F8A3E0F9A3E0FAA3E0FB12267820
:105E4000500778BD7602025FE9E4FFFE7D807CBFEB
:105E5000900043E0F8A3E0F9A3E0FAA3E0FB1226E8
:105E6000784021E4FFFE7D807C3F900043E0F8A372
:105E7000E0F9A3E0FAA3E0FB122678500778BD769C
:105E800003025FE9E4FFFE7D807C3F900043E0F881
:105E9000A3E0F9A3E0FAA3E0FB1226784020E4FF98
:105EA000FEFD7C40900043E0F8A3E0F9A3E0FAA3F4
:105EB000E0FB122678500778BD7604025FE9E4FF24
:105EC000FEFD7C40900043E0F8A3E0F9A3E0FAA3D4
:105ED000E0FB1226784021E4FFFE7D407C409000EC
:105EE00043E0F8A3E0F9A3E0FAA3E0FB1226785020
:105EF0000778BD7605025FE9E4FFFE7D407C4090B7
:105F00000043E0F8A3E0F9A3E0FAA3E0FB1226784F
:105F10004021E4FFFE7D807C40900043E0F8A3E058
:105F2000F9A3E0FAA3E0FB122678500778BD7606C5
:105F3000025FE9E4FFFE7D807C40900043E0F8A32F
:105F4000E0F9A3E0FAA3E0FB1226784020E4FFFE8C
:105F50007DA07C40900043E0F8A3E0F9A3E0FAA321
:105F6000E0FB122678500678BD7607807CE4FFFEC1
:105F70007DA07C40900043E0F8A3E0F9A3E0FAA301
:105F8000E0FB1226784020E4FFFE7DC07C409000BC
:105F900043E0F8A3E0F9A3E0FAA3E0FB122678506F
:105FA0000678BD76088042E4FFFE7DC07C4090000C
:105FB00043E0F8A3E0F9A3E0FAA3E0FB122678405F
:105FC00020E4FFFE7DE07C40900043E0F8A3E0F990
:105FD000A3E0FAA3E0FB122678500678BD7609808C
:105FE00008E478BDF678BB7601901400E054F7F031
:035FF00002A2A169
:0585DA00900043EFF0EA
:1085DF00E4FF12A1AC901400E04408F0129F5390F6
:1085EF00004CEEF0A3EFF0129F5390004CEEF0A36F
:1085FF00EFF090BFFDE4935403FE90BFFCE493FDB6
:10860F00EDFFAC06E41226FBC004C005C006C00790
:10861F0090004CE0FCA3E0FDE41226FBA804A905A2
:10862F00AA06AB07D007D006D005D0041223DD7BF6
:10863F00BD7A527906783F1224D2900044122BE073
:10864F00E4FFFE7DF07C41900044E0F8A3E0F9A345
:10865F00E0FAA3E0FB1223E1900044122BE090001C
:10866F0044E0FCA3E0FDA3E0FEA3E0FF1277E79058
:10867F000044122BE0900044E0FCA3E0FDA3E0FED9
:10868F00A3E0FF127B78AB07900044E0FCA3E0FD72
:10869F00A3E0FEA3E0FF900052EBF01259659000AB
:1086AF0048122BE075D8FF75D97F78BBE678BE608E
:1086BF0005122BAB8014122BAB900048E0F8A3E00F
:1086CF00F9A3E0FAA3E0FB1223E1129389901400BF
:1086DF00E054F7F012A2A1900043E060119000481F
:1086EF00E0FCA3E0FDA3E0FEA3E0FF1296229000C2
:1086FF0048E0FCA3E0FDA3E0FEA3E0FF78B4022B6B
:01870F00D495
:0B895500900094EBF0A3EAF0A3E9F01F
:108960001295B77832122BC7EF2BFFEE3AFEED3996
:10897000FDEC38FCE47B1EFAF9F8122A8D90009782
:10898000122BE0900097E0FCA3E0FDA3E0FEA3E043
:10899000FF7868122BD47E007F087D00900094E061
:1089A000FBA3E0FAA3E0F9122DEC900097A3A3A398
:1089B000E0FF900094E0FBA3E0FAA3E0F990000749
:1089C000EF122903900097E0FCA3E0FDA3E0FEA3D3
:1089D000E0FF7808122B4B900097122BE090009745
:1089E000A3A3A3E0900006122903900097E0FCA344
:1089F000E0FDA3E0FEA3E0FF7808122B4B90009768
:108A0000122BE0900097A3A3A3E090000512290386
:108A1000900097E0FCA3E0FDA3E0FEA3E0FF780850
:108A2000122B4B900097122BE0900097A3A3A3E08A
:108A3000900004122903900097E0FCA3E0FDA3E05E
:0F8A4000FEA3E0FF7808122B4B900097022BE06B
:0F4A6C009000C0EBF0A3EAF0A3E9F0A3122BE057
:104A7B00E47F14FEFDFC9000C3E0F8A3E0F9A3E093
:104A8B00FAA3E0FBC3122B3A60037F0022E47F04FE
:104A9B00FEFDFC9000CAE0F8A3E0F9A3E0FAA3E066
:104AAB00FBC3122B3A500A9000CA122C05000000CF
:104ABB0004E47F0AFEFDFC9000CAE0F8A3E0F9A332
:104ACB00E0FAA3E0FBD3122B3A400A9000CA122C57
:104ADB00050000000A9000C3A3A3E0FEA3E024FF9F
:104AEB00FFEE34FFFE9000C0E0FBA3E0FAA3E0F979
:104AFB008F828E831228C49000D3F0E0540FF0E025
:104B0B00F5827583001228C4FFE4FCFDFE9000CFF4
:104B1B00122BE09000CFA3A3A3E0547FFFE4FEFD94
:104B2B00FC9000CF122BE09000CFE0FCA3E0FDA3A4
:104B3B00E0FEA3E0FF7808122B5E9000CF122BE073
:104B4B009000CFE0F8A3E0F9A3E0FAA3E0FBC000EC
:104B5B00C001C002C003A3E02401FFE433FE9000B8
:104B6B00C0E0FBA3E0FAA3E0F98F828E831228C486
:104B7B00FFD003D002D001D000EB4FFFEAFEE9FDDE
:104B8B00E8FC9000CF122BE09000CFE0FCA3E0FDFF
:104B9B00A3E0FEA3E0FF7808122B5E9000CF122B50
:104BAB00E09000CFE0F8A3E0F9A3E0FAA3E0FBC0AC
:104BBB0000C001C002C003A3E02402FFE433FE9057
:104BCB0000C0E0FBA3E0FAA3E0F98F828E831228EA
:104BDB00C4FFD003D002D001D000EB4FFFEAFEE9B7
:104BEB00FDE8FC9000CF122BE09000CFE0FCA3E09F
:104BFB00FDA3E0FEA3E0FF7808122B5E9000CF121E
:104C0B002BE09000CFE0F8A3E0F9A3E0FAA3E0FBE0
:104C1B00C000C001C002C003A3E02403FFE433FEC5
:104C2B009000C0E0FBA3E0FAA3E0F98F828E831221
:104C3B0028C4FFD003D002D001D000EB4FFFEAFE17
:104C4B00E9FDE8FC9000CF122BE09000D4122C056C
:104C5B00000000019000CE7401F09000CEE0FFE464
:104C6B00FCFDFE9000CAE0F8A3E0F9A3E0FAA3E094
:104C7B00FBC3122B3A40259000D4E0FCA3E0FDA32C
:104C8B00E0FEA3E0FFE47B0AFAF9F8122A02900097
:104C9B00D4122BE09000CEE004F080BE9000CFE069
:104CAB00FCA3E0FDA3E0FEA3E0FF9000D4E0F8A39B
:104CBB00E0F9A3E0FAA3E0FB122A8DAC00AD01AE44
:104CCB0002AF039000CF122BE0E49000CEF09000E7
:104CDB00CEE0FFE4FCFDFE9000CAE0F8A3E0F9A3F0
:104CEB00E0FAA3E0FBD3122B3A40219000C7E0FB84
:104CFB00A3E0FAA3E0F99000CEE0F582758300748F
:104D0B00301229039000CEE004F080C29000CAA3B9
:104D1B00A3E0FEA3E024FFFFEE34FF9000C88FF06A
:104D2B0012298C9000D4122C050000000A9000CAA6
:104D3B00E0FCA3E0FDA3E0FEA3E0FFEC4D4E4F70C3
:104D4B0003024E569000D4E0F8A3E0F9A3E0FAA3D7
:104D5B00E0FB9000CFE0FCA3E0FDA3E0FEA3E0FFAF
:104D6B00122A8DAC00AD01AE02AF039000D8122B0E
:104D7B00E09000CFE0FCA3E0FDA3E0FEA3E0FF90FA
:104D8B0000D8E0F8A3E0F9A3E0FAA3E0FBC3EF9BA4
:104D9B00FFEE9AFEED99FDEC98FC9000CF122BE004
:104DAB009000D8E0FCA3E0FDA3E0FEA3E0FFC0046D
:104DBB00C005C006C007E47B0AFAF9F89000D4E0FE
:104DCB00FCA3E0FDA3E0FEA3E0FF122A8DA804A93B
:104DDB0005AA06AB07D007D006D005D004122A8D42
:104DEB009000D8122BE09000D4E0FCA3E0FDA3E0F0
:104DFB00FEA3E0FFE47B0AFAF9F8122A029000D432
:104E0B00122BE09000D8A3A3A3E02430FF9000C79F
:104E1B00E0FBA3E0FAA3E0F9EF1228F19000CAE05F
:104E2B00FCA3E0FDA3E0FEA3E024FFFFEE34FFFEB6
:104E3B00ED34FFFDEC34FFFC9000CA122BE0900028
:0D4E4B00C874FFF5F012298C024D387F016C
:014E58002237
:0E804400900094EBF0A3EAF0A3E9F0A3EDF0B6
:108052007E007F147D007B017A0079AA122DEC90BC
:1080620000A77401F0A37406F0A37466F090009761
:10807200E0640860037FFF2290009FE0C3940850F1
:1080820034E0FFFDC374089DFDE49400FCC004C00D
:108092000590009CE0FBA3E0FAA3E0F9EFFD7C0071
:1080A200E92DF9EC3AFA7D00D007D006122DEC90BA
:1080B200009F7408F0E49000A6F0900097E0FF7E25
:1080C200009000A7E0FBA3E0FAA3E0F99000A6E08D
:1080D200FD7C00E92DF9EC3AA801FCAD0390009477
:1080E200E0FBA3E0FAA3E0F9122885900097E0FFF5
:1080F2009000A6E02FF090009BE0FF9000C4E4F017
:10810200A3EFF09000A7E0F9A3E0FAA3E09000C685
:10811200C9F0A3EAF0A3E9F09000A6E0FFE4FCFDB9
:10812200FE9000C9122BE09000CD7401F0A3740000
:10813200F0A374AAF0A37401F0A37400F0A374BEB8
:10814200F0900098E0FBA3E0FAA3E0F97FC1126887
:108152007B9000A67414F09000A3E0FBA3E0FAA3C6
:10816200E0F974081228F19000A6E0FFE4FCFDFE9D
:10817200C004C005C006C0079000A0E0F9A3E0FA61
:10818200A3E09000C7C9F0A3EAF0A3E9F09000A32E
:10819200E0FBA3E0FAA3E0F91228ABFFE49000CAE7
:1081A200122BE07B017A0079AAD007D006D005D045
:0681B20004124A6C7F007C
:0181B80022A4
:10871000E0FCA3E0FDA3E0FEA3E0FF90077B122BAB
:0F872000E09004B4E090077FF07B017A04799C2D
:10872F00900771EBF0A3EAF0A3E9F090077FE03038
:10873F00E067E4FFFEFDFC90077BE0F8A3E0F9A300
:10874F00E0FAA3E0FBC3122B3A7030900777E0FCFE
:10875F00A3E0FDA3E0FEA3E0C39401FFEE9400FEAF
:10876F00ED9400FDEC9400FC900777122BE090073E
:10877F007B122C05FFFFFFFF02880C90077BE0FCAC
:10878F00A3E0FDA3E0FEA3E0C39401FFEE9400FE7F
:10879F00ED9400FDEC9400805D74FFFFFEFDFC90F6
:1087AF00077BE0F8A3E0F9A3E0FAA3E0FBC3122BE9
:1087BF003A702B900777E0FCA3E0FDA3E0FEA3E067
:1087CF002401FFE43EFEE43DFDE43CFC90077712FC
:1087DF002BE090077B122C0500000000801F9007F4
:1087EF007BE0FCA3E0FDA3E0FEA3E02401FFE43E59
:1087FF00FEE43DFDE43CFC90077B122BE0900777F5
:10880F00E0FCA3E0FDA3E0FEA3E0FF900771E0FB17
:10881F00A3E0FAA3E0F9122B9190077BE0FCA3E011
:10882F00FDA3E0FEA3E0FF900774E0FBA3E0FAA333
:05883F00E0F9022B919D
:03000600122B7149
:0100090022D4
:0E524200900460EBF0A3EAF0A3E9F0A3EDF016
:105250007E007F507D007B017A067966122DECE49A
:105260009004B5F0900463E0FF7E00E42466F9E466
:105270003406A801FC7D01900460E0FBA3E0FAA3E2
:10528000E0F91228859004B5E02466F9E43406FAC2
:105290009004797401F0A3EAF0A3E9F0900463E0CC
:1052A000FF9004B5E02FF090046BE0FF7E009004C7
:1052B000B5E02466F9E43406A801FC7D0190046899
:1052C000E0FBA3E0FAA3E0F912288590046BE0FF6D
:1052D0009004B5E02FF090046FE0FF7E0078717CC1
:1052E000047D0190046CE0FBA3E0FAA3E0F912282E
:1052F00085900479E0FBA3E0FAA3E0F912000690A0
:1053000004A4122BE0900479E0FBA3E0FAA3E024CC
:1053100004F9E43AFA1200069004A8122BE0900473
:10532000A4E0FCA3E0FDA3E0FEA3E0FF9004AC1228
:105330002BE09004A8E0FCA3E0FDA3E0FEA3E0FFC7
:105340009004B0122BE0900470E0FF70057403F03D
:10535000800FEF900470B401057409F0800374119C
:10536000F0E49004B6F0A37480F0E49004B4F090FC
:105370000470E0FF9004B4E0FEC39F4003025605B2
:10538000EE702B9004A4E0FCA3E0FDA3E0FEA3E0FC
:10539000FF90049C122BE09004A8E0FCA3E0FDA386
:1053A000E0FEA3E0FF9004A0122BE002545D900405
:1053B000B4E090077430E0527401F0A37404F0A3D9
:1053C00074A0F09004A4E0FCA3E0FDA3E0FEA3E041
:1053D000FF900777122BE09004A812871090049C8E
:1053E000E0FCA3E0FDA3E0FEA3E0FF9004A4122BE9
:1053F000E09004A0E0FCA3E0FDA3E0FEA3E0FF90AA
:1054000004A8122BE09004B780507401F0A3740438
:10541000F0A374A0F09004ACE0FCA3E0FDA3E0FED8
:10542000A3E0FF900777122BE09004B01287109052
:10543000049CE0FCA3E0FDA3E0FEA3E0FF9004AC2D
:10544000122BE09004A0E0FCA3E0FDA3E0FEA3E0AB
:10545000FF9004B0122BE09004B6E004F090049C9E
:10546000E0FCA3E0FDA3E0FEA3E0FF7818122B4BC5
:10547000900479E0FBA3E0FAA3E0F9EF1228F190A1
:10548000049CE0FCA3E0FDA3E0FEA3E0FF78101283
:105490002B4B900479E0FBA3E0FAA3E0F990000124
:1054A000EF12290390049CE0FCA3E0FDA3E0FEA31F
:1054B000E0FF7808122B4B900002EF1229039004B2
:1054C0009CA3A3A3E09000031229039004A0E0FC96
:1054D000A3E0FDA3E0FEA3E0FF7818122B4B9000A1
:1054E00004EF1229039004A0E0FCA3E0FDA3E0FE7A
:1054F000A3E0FF7810122B4BE92404F9E43AFA9068
:105500000001EF1229039004A0E0FCA3E0FDA3E05A
:10551000FEA3E0FF7808122B4B900002EF12290344
:105520009004A0A3A3A3E0900003122903900467B2
:10553000E0FF9000C4E4F0A3EFF0A37401F0A374C3
:1055400006F0A37466F09004B5E0FFE4FCFDFE9065
:1055500000C9122BE09000CD7401F0A37404F0A3F5
:1055600074D8F0A37401F0A37404F0A374F8F0905D
:105570000464E0FBA3E0FAA3E0F97FC112687B7842
:10558000B87C047D017B017A0479D87E007F1412F7
:1055900028857F14E4FCFDFEC004C005C006C007DA
:1055A0007B019000C704F0A37404F0A3747CF09016
:1055B000046FE0FFE49000CA122BE07A0479B8D0BF
:1055C00007D006D005D004124A6C90046FE0FF7E2D
:1055D00000787C7C047D017B017A047971122DC8EE
:1055E000EF70199004B4E0FE7002FF22EE30E00686
:1055F0009004B7E0FF229004B6E0FF229004B4E0EC
:0756000004F002536F7FFF6D
:015607002280
:0B560800900043EBF0A3EAF0A3E9F0F0
:10561300439001E59030E3FB439006EF24FE7003D3
:105623000256EB24FA70030258262407600302593A
:105633003D78B1E6FF7E007D007B007A0079A01201
:105643002DEC78B1E6FF7E0078A07C007D00900011
:1056530043E0FBA3E0FAA3E0F9122885900043E0BE
:10566300FBA3E0FAA3E0F978B1E6FF7E00E92FF9A6
:10567300EE3AFAE92408F9E43AFA78907C007D00DE
:105683007F10122885E4900078F0900078E0FF9076
:105693009F4393FE74482FF582E43400F583EEF0C4
:1056A300900078E004F0E0B410E07B017A007948E0
:1056B30012632790009F7401F0E4A3F0F9A3C9F0EB
:1056C300A3F0A3E9F0A3E4F0A37400F0A37490F0B3
:1056D3007B007A00F97F107E007D007C00126D65EF
:1056E300E4900047F00259437E007F107D007B0069
:1056F3007A007980122DEC7E007F207D007B017A79
:10570300007958122DEC78807C007D00900043E0F6
:10571300FBA3E0FAA3E0F97E007F10122885900036
:1057230043E0FBA3E0FAA3E02410F9E43AFA785843
:105733007C007D017E007F14122885E4900078F0C0
:10574300900078E0FF2490F8E6FE74482FF582E499
:105753003400F583EEF0900078E004F0E0B410E05C
:105763007B017A00794812632790009F7401F0E46B
:10577300A3F0F9A3C9F0A3F0A3E9F0A3E4F0A374A1
:1057830000F0A37480F07B007A00F97F107E007D27
:10579300007C00126D65900092E4F0A37420F0E4A5
:1057A300900078F0900078E0FF2490F8E6FE7448CB
:1057B3002FF582E43400F583EEF0900078E004F0F6
:1057C300E0B410E07B017A007948126327900092DD
:1057D300E0FEA3E0FFE4FCFD90009FF0A3F0F9A33B
:1057E300C9F0A3F0A3E9F0A3E4F0A37400F0A37459
:1057F30040F07B017A007958126D65E47837F678CA
:105803003EF67836F6783A122BEC00000000E4906E
:105813000047F0FE7F20FD7B017A007958122DECC2
:105823000259437E007F067D00900043E0FBA3E026
:10583300FAA3E0F9122DEC7B017A00797A128955EB
:1058430078587C007D017B007A0079407E007F20C0
:10585300122885E4900078F0900078E0FF2490F817
:10586300E6FE74482FF582E43400F583EEF09000F1
:1058730078E004F0E0B410E07B017A007948126329
:105883002790009F7401F0E4A3F0F9A3C9F0A3F0FB
:10589300A3E9F0A37401F0A37400F0A37458F07BA0
:1058A300017A00F97F207E007D007C00126D6590F7
:1058B30000987401F0A37400F0A37458F0A3741457
:1058C300F0900043E0F9A3E0FAA3E090009CC9F054
:1058D300A3EAF0A3E9F0A37406F0A37401F0A374A0
:1058E30000F0A37482F0A37401F0A37400F0A37416
:1058F30079F07B017A00797A7D0812804490004622
:10590300EFF0900079E0FF7E00900043E0FBA3E01E
:10591300FAA3E0F8AC02AD037B017A007982122886
:10592300857E007F207D007B017A007958122DEC63
:10593300900046E07004A3F080069000477401F0E5
:10594300439001E59030E3FB5390FB439020E590B7
:1059530030E7FB5390BF5390DF5390FE900047E036
:01596300FF44
:015964002220
:108BFA000901080A0000000A0C010A0204010A0A13
:108C0A000500020A05010A080D010A080001000A06
:108C1A000D010A0A05010A0A0D0102020C000208E6
:108C2A000C000A0804000200000008000D010A00F6
:108C3A000C000200090008000C000A0000060500EA
:108C4A0000000000050108090000000904050803E6
:108C5A000005080B0104000B0105080A0505080AAE
:108C6A00000100090505080B0105080B05050003AD
:108C7A000404000A0404080A0004000200000800B0
:108C8A00050508020404000205000800040408029D
:108C9A000000070400000000303132333435363723
:0D8CAA003839506E6F2D5F45724C634B6B77
:0DA34700AE071FEE60060000000080F4224B
:10A10100439140901410E05481F0E04FF0E04DF0A5
:10A11100E04BF0E04401F07F0A12A347A37402F080
:01A12100221B
:077D24009007CBEDF0A90769
:107D2B007D317C14E920E003027DF924FFFFE4346C
:107D3B00FFC313EF13F9E025E025E024FAF582E405
:107D4B00348BF583E493FBE975F007A4FFC3ED9F38
:107D5B00FFEC95F08F82F583EBF09007CBE025E0FD
:107D6B0025E024FBF582E4348BF583E493FBE97582
:107D7B00F007A42401FFE435F0FEC3ED9FFFEC9E5A
:107D8B008F82F583EBF09007CBE025E025E024FC18
:107D9B00F582E4348BF583E493FBE975F007A424B7
:107DAB0002FFE435F0FEC3ED9FFFEC9E8F82F5835F
:107DBB00EBF0E975F007A42403FFE435F0FEC3ED07
:107DCB009FFFEC9E8F82F583E05405F0C083C08249
:107DDB00E0FF9007CBE025E025E024FDF582E434BD
:107DEB008BF583E493FEEF4ED082D083F022E9240F
:107DFB00FFFFE434FFC313EF13F975F007A424035B
:107E0B00FFE435F0FEC3ED9FFFEC9E8F82F583E020
:107E1B00540AF0C083C082E0FF9007CBE0FE25E060
:107E2B0025E0244EF582E4348CF583E493FBEF4B91
:107E3B00D082D083F0EE25E025E0244FF582E434A8
:107E4B008CF583E493FBE975F007A42404FFE43578
:107E5B00F0FEC3ED9FFFEC9E8F82F583EBF0900756
:107E6B00CBE025E025E02450F582E4348CF583E467
:107E7B0093FBE975F007A42405FFE435F0FEC3ED91
:107E8B009FFFEC9E8F82F583EBF09007CBE025E014
:107E9B0025E02451F582E4348CF583E493FBAF01A8
:107EAB00EF75F007A42406FFE435F0FEC3ED9FFF4A
:087EBB00EC9E8F82F583EBF0D1
:017EC300229C
:0E8B39009007A7EBF0A3EAF0A3E9F0A3EDF09C
:108B4700439001E59030E3FB439006E49007ABF0D8
:108B57009007AAE0FFA3E0FEC39F507A9007A7E023
:108B6700FBA3E0FAA3E0F98E827583001228C430D4
:108B7700E70EE92EF9E43AFA1228AB547F1228F1EE
:108B8700E49007ACF09007ACE0FFC39415503E901B
:108B970007A7E0FBA3E0FAA3E0F99007ABE0FEF537
:108BA700827583001228C4FDEF908CA293B505153A
:108BB7009007AAE0FFC374099FFFEE2FFF9007AC51
:108BC700E0FD127D249007ACE004F080B89007AB7D
:108BD700E004F0028B57439001E59030E3FB53909C
:108BE700FB439020E59030E7FB5390BF5390DF5352
:028BF70090FEEE
:018BF9002259
:10A03F007F1D9007BE7401F0A37414F0A304F0AE5B
:10A04F00071FEE60169007BEE0FBA3E475F0011248
:0BA05F0029A2A9F0FAE41228F180E425
:01A06A0022D3
:10A06B007F1E9007C17401F0A37414F0A304F0AE2B
:10A07B00071FEE60169007C1E0FBA3E475F0011219
:0BA08B0029A2A9F0FAE41228F180E4F9
:01A0960022A7
:10A012007F1E9007C47401F0A37414F0A304F0AE81
:10A02200071FEE60179007C4E0FBA3E475F001126E
:0CA0320029A2A9F0FA740F1228F180E3B3
:01A03E0022FF
:109472007D327C149007C77414F0A304F0EFB4019A
:10948200088D828C837408F022EFB402088D828CDE
:1094920083740CF022EFB403088D828C83740EF077
:1094A20022EFB404088D828C83740F801FEFB40501
:1094B200168D828C83740FF09007C7E0FEA3E0F54F
:1094C200828E837401F0228D828C83E4F09007C730
:0C94D200E0FEA3E0F5828E83E0540EF073
:0194DE00226B
:109FE300901415EFB40109E05401F0E04408F022A5
:109FF300EFB40209E05401F0E04404F022EFB403AB
:0EA0030009E05401F0E04402F022E05401F0C4
:01A01100222C
:0CA193007FFA12A19F7FFA12A19F7FFAB1
:0DA19F00000000000000AE071FEE70F4226B
:10A1AC00439140901400E04401F0A3E4F0E04FF040
:09A1BC00E04401F07F1902A19FAB
:109F5300901401E04402F012A19312A19390140310
:109F6300E020E406E04410F080F3901401E054FD97
:109F7300F0901406E05403FE901405E0FDEDFF227B
:10A2A100901401E054FDF0E054FEF0901400E054ED
:03A2B100FEF0229A
:109F21004F4352412D313A484F54502D53484131FE
:109F31002D383A514131362D50534841312D54314C
:109F41004D00536647CF5AB0511D8103FEE9745F3E
:029F51001734C3
:1092840090009FE5DBF0AFDCE0B5DBF4A3E5DDF0B7
:10929400EFB5DCECA3E5DEF09000A0E065DD600452
:1092A400A3E5DEF0E4FCFDFE7810122B5EE4FFFE85
:1092B400E4FCC004C005C006C00790009FE0FFE4C2
:1092C400FD7818122B5ED003D002D001D000EBFF42
:1092D400EAFEE9FDEC48FCC004C005C006C007A3D3
:1092E400E0FFE4FCFDFE7808122B5ED003D002D030
:1092F40001D000EA4EFAA3E0FFEB4FFFEAFEE9FDDE
:02930400E8FC83
:019306002244
:0B3F9500900089EBF0A3EAF0A3E9F034
:103FA0001295B790008E122BE090008EE0FCA3E0FB
:103FB000FDA3E0FEA3E0FF7832122BC7EF2BFFEE4C
:103FC0003AFEED39FDEC38FC90008E122BE09000AB
:103FD0008EE0FCA3E0FDA3E0FEA3E0FFE47B3CFA5F
:103FE000F9F8122A8D90008E122BE090008EE0FCE2
:103FF000A3E0FDA3E0FEA3E0C39480FFEE9408FEDF
:10400000ED9449FDEC9401FC90008E122BE09000A1
:104010008C7407F0A374DBF07F207E057D087C00A4
:1040200090008EE0F8A3E0F9A3E0FAA3E0FBD3123E
:104030002B3A405B90008EE0FCA3E0FDA3E0FEA3E2
:10404000E09420FFEE9405FEED9408FDEC9400FC56
:1040500090008E122BE090008DE054037021A3E0BD
:10406000FCA3E0FDA3E0FEA3E0C394A0FFEE940553
:10407000FEED9400FDEC9400FC90008E122BE0907D
:10408000008DE004F0709190008CE004F080899045
:10409000008CE0FEA3E0FF7C077DD0122937900062
:1040A00089E0FBA3E0FAA3E0F9ED1228F190008982
:1040B000E0FBA3E0FAA3E0F99000017401122903E8
:1040C000E47F607EAEFDFC90008EE0F8A3E0F9A3F3
:1040D000E0FAA3E0FBD3122B3A500302448690008F
:1040E0008EE0FCA3E0FDA3E0FEA3E09460FFEE946D
:1040F000AEFEED9400FDEC9400FC90008E122BE0DF
:10410000900089E0FBA3E0FAA3E0F99000017402BB
:1041100012290390008DE0540370307F207EA3FDB0
:10412000FCA3E0F8A3E0F9A3E0FAA3E0FBD3122B91
:104130003A500302448690008EE0FCA3E0FDA3E029
:10414000FEA3E09420FFEE94A38031E47F807E9D67
:10415000FDFC90008EE0F8A3E0F9A3E0FAA3E0FBF9
:10416000D3122B3A500302448690008EE0FCA3E069
:10417000FDA3E0FEA3E09480FFEE949DFEED94008D
:10418000FDEC9400FC90008E122BE0900089E0FB87
:10419000A3E0FAA3E0F99000017403122903E47F7D
:1041A000607EAEFDFC90008EE0F8A3E0F9A3E0FA9B
:1041B000A3E0FBD3122B3A500302448690008EE01A
:1041C000FCA3E0FDA3E0FEA3E09460FFEE94AEFE4E
:1041D000ED9400FDEC9400FC90008E122BE090001A
:1041E00089E0FBA3E0FAA3E0F9900001740412292E
:1041F00003E47FC07EA8FDFC90008EE0F8A3E0F908
:10420000A3E0FAA3E0FBD3122B3A500302448690BA
:10421000008EE0FCA3E0FDA3E0FEA3E094C0FFEE6F
:1042200094A8FEED9400FDEC9400FC90008E122BFF
:10423000E0900089E0FBA3E0FAA3E0F990000174AC
:1042400005122903E47F607EAEFDFC90008EE0F84D
:10425000A3E0F9A3E0FAA3E0FBD3122B3A50030248
:10426000448690008EE0FCA3E0FDA3E0FEA3E09472
:1042700060FFEE94AEFEED9400FDEC9400FC900027
:104280008E122BE0900089E0FBA3E0FAA3E0F99006
:1042900000017406122903E47FC07EA8FDFC900093
:1042A0008EE0F8A3E0F9A3E0FAA3E0FBD3122B3AE7
:1042B000500302448690008EE0FCA3E0FDA3E0FEE4
:1042C000A3E094C0FFEE94A8FEED9400FDEC9400F2
:1042D000FC90008E122BE0900089E0FBA3E0FAA393
:1042E000E0F99000017407122903E47F607EAEFDBF
:1042F000FC90008EE0F8A3E0F9A3E0FAA3E0FBD382
:10430000122B3A500302448690008EE0FCA3E0FD9D
:10431000A3E0FEA3E09460FFEE94AEFEED9400FDFA
:10432000EC9400FC90008E122BE0900089E0FBA33F
:10433000E0FAA3E0F99000017408122903E47F6019
:104340007EAEFDFC90008EE0F8A3E0F9A3E0FAA3B6
:10435000E0FBD3122B3A500302448690008EE0FC1F
:10436000A3E0FDA3E0FEA3E09460FFEE94AEFEEDBB
:104370009400FDEC9400FC90008E122BE0900089DC
:10438000E0FBA3E0FAA3E0F990000174091229030D
:10439000E47FC07EA8FDFC90008EE0F8A3E0F9A3C6
:1043A000E0FAA3E0FBD3122B3A50030244869000BC
:1043B0008EE0FCA3E0FDA3E0FEA3E094C0FFEE943A
:1043C000A8FEED9400FDEC9400FC90008E122BE012
:1043D000900089E0FBA3E0FAA3E0F9900001740AE1
:1043E000122903E47F607EAEFDFC90008EE0F8A30E
:1043F000E0F9A3E0FAA3E0FBD3122B3A5003024406
:104400008690008EE0FCA3E0FDA3E0FEA3E09460B4
:10441000FFEE94AEFEED9400FDEC9400FC90008E57
:10442000122BE0900089E0FBA3E0FAA3E0F99000F2
:1044300001740B122903E47FC07EA8FDFC90008E5E
:10444000E0F8A3E0F9A3E0FAA3E0FBD3122B3A4093
:104450003590008EE0FCA3E0FDA3E0FEA3E094C055
:10446000FFEE94A8FEED9400FDEC9400FC90008E0D
:10447000122BE0900089E0FBA3E0FAA3E0F99000A2
:1044800001740C122903E47BA07A05F9F890008EE0
:10449000E0FCA3E0FDA3E0FEA3E0FF122A8DEF0401
:1044A000FF900089E0FBA3E0FAA3E0F9900002EF9F
:1044B00012290390008EE0FCA3E0FDA3E0FEA3E040
:1044C000FFE47BA07A05F9F8122A8DAC00AD01AEAD
:1044D00002AF0390008E122BE0E47B3CFAF9F890D7
:1044E000008EE0FCA3E0FDA3E0FEA3E0FF122A8D16
:1044F000900089E0FBA3E0FAA3E0F9900003EF123B
:104500002903E47B3CFAF9F890008EE0FCA3E0FD7F
:10451000A3E0FEA3E0FF122A8DAF03900089E0FB29
:10452000A3E0FAA3E0F9900004EF1229031295B773
:1045300090008E122BE090008EE0FCA3E0FDA3E043
:10454000FEA3E0FF7832122BC7EF2BFFEE3AFEED11
:1045500039FDEC38FC90008E122BE090008EE0FCD0
:10456000A3E0FDA3E0FEA3E0FFE47B3CFAF9F81230
:104570002A8DAC00AD01AE02AF0390008E122BE08D
:1045800090008EA3A3A3E0FF900089E0FBA3E0FAD4
:0A459000A3E0F9900005EF022903F3
:10A2FB0043912043C002439101E4F5D575D6FF226B
:10A2510043D50243D501E5D630E3FB43D608E4F507
:04A26100D5AFD4227F
:10A26500E4F5D553D5FD8FD443D501E5D520E0FBE5
:04A27500E4F5D52215
:0B9DEC00900089EBF0A3EAF0A3E9F07F
:109DF700AE04AF0553D5FDEF1FAC0670011E4C60D6
:109E07001F900089E0FBA3E475F0011229A2A9F0D5
:109E1700FA1228ABF5D443D501E5D630E4D980F959
:089E2700E5D520E0FBE4F5D5D0
:019E2F002210
:106F9F007E007F407D007B017A0679F2122DECE4B2
:106FAF0090074DF09006BEF0F5B39007BD04F07B4F
:106FBF00FE7A007D02E4FF1294DFD2AAD2AF43D54E
:106FCF000243D501E4900724F0E5D620E31490079F
:106FDF004DE0C39478500BE4F5B343B30275B3019E
:106FEF0080E790074DE0B478109007267490F0A3D7
:106FFF007403F05398BF0271BC9006BEE0703190DD
:10700F000724E0C394405028E0FF04F074F22FF5FA
:10701F0082E43406F583E5D4F0E4F5B343B30275A7
:10702F00B301E5D620E3D29006BEE0B401F480C9E7
:10703F00E4F5D5F5B343B3025398EF5391FD53984D
:10704F00BF90074AF0FF900724E0FE90074AE0C385
:10705F009E501BE0FD04F074F22DF582E43406F52A
:10706F0083E0B455030F8002E4FFEFB403D8900719
:10707F004AE0B506057E907F0622E4900725F09042
:10708F000724F0900724E0FF909F4393FE743A2F5C
:10709F00F582E43407F583EEF0900724E004F0E086
:1070AF00B410E07E007F107D007B017A07792812F3
:1070BF002DEC90074AE0FB24F3F582E43406F583C8
:1070CF00E02402FEE433900738F0A3CEF0EB7E000D
:1070DF0024F2F9EE3406FA7B01C00390008CEBF03A
:1070EF00A37407F0A37438F0A3EBF0A37407F0A315
:1070FF00743AF0A3EBF0A37407F0A37428F0D00355
:10710F0012832E90074AE0FD24F3F582E43406F54E
:10711F0083E02402FEE433900738F0A3CEF090070B
:10712F0038E0FEA3E024F2F974063EFAED7E002962
:10713F00F9EE3AA801FC7D017B017A0779287F04DB
:10714F00122DC8EF60069007257401F0900725E017
:10715F00600AA37490F0A37402F080519007267414
:10716F0090F0A3E4F0900724F0900739E02404FF97
:10717F00900738E03400FE900724E0FDC39FE49EA3
:10718F00502B90074AE0FFED2FFFE433FE74F22FF0
:10719F00F58274063EF583E0FF74F22DF582E43438
:1071AF0006F583EFF0900724E004F080BC900726EB
:0571BF00E0FEA3E0FF6B
:0171C40022A8
:0B002600900043EEF0A3EFF0A3EDF01C
:100031009006BF7455F0A3F0A3F0A3EDF0EF7003A9
:10004100EE64906003020DDB900045E064A560035F
:1000510002013A9006F4E064A060030200F3A3E019
:10006100640360030200F39006C37402F0783FE674
:100071006401703E78C2E60830E71F18E6FC08E626
:10008100FDEC547FFEAF05C374FF9F747F9EA3F008
:10009100AF05C374FF9FA3F0802078C2E6FC08E699
:1000A100FD24FFEC347F9006C4F0AF05EF14A3F0FC
:1000B10080089006C474FFF0A3F0900043E0FCA315
:1000C100E0FDEC9006C6F0A3EDF0E4900066F09040
:1000D1000066E0FF909F4393FE74462FF582E4345F
:1000E10000F583EEF0900066E004F0E0B410E00269
:1000F1000A589000437490F0A37406F0E49006C38C
:10010100F0900043E0FCA3E0FDEC9006C4F0A3ED09
:10011100F0E4900066F0900066E0FF909F4393FE4C
:1001210074462FF582E43400F583EEF0900066E02A
:1001310004F0E0B410E00204AF900045E064A36075
:10014100030201DC9006F4E064A07048A3E06401BE
:1001510070429006C304F07831E6A3F0900043E0CA
:10016100FCA3E0FDEC9006C5F0A3EDF0E490006681
:10017100F0900066E0FF909F4393FE74462FF58256
:10018100E43400F583EEF0900066E004F0E0B41092
:10019100E0020CB99000437490F0A37406F0E4906F
:1001A10006C3F0900043E0FCA3E0FDEC9006C4F030
:1001B100A3EDF0E4900066F0900066E0FF909F43AD
:1001C10093FE74462FF582E43400F583EEF090003F
:1001D10066E004F0E0B410E00204AF900045E06492
:1001E100A2600302032B9006C37404F0439001E55F
:1001F1009030E3FB43900678697C007D017B007AB7
:100201000079407E007F20122885E4900066F090FE
:100211000066E0FF2490F8E6FE74462FF582E43490
:1002210000F583EEF0900066E004F0E0B410E07BAE
:10023100017A00794612632790009F7401F0E4A3CC
:10024100F0F9A3C9F0A3F0A3E9F0A37401F0A3743A
:1002510000F0A37469F07B017A00F97F207E007DB4
:10026100007C00126D65E4900066F0900066E0FF8E
:100271002480F8E6FE74462FF582E43400F583EE1F
:10028100F0900066E004F0E0B410E07E007F107DA5
:10029100007B017A007956122DEC900067E4F0A3FF
:1002A1007420F090008C7401F0A37400F0A37467C3
:1002B100F0A37401F0A37400F0A37446F0A37401D9
:1002C100F0A37400F0A37456F07B017A00796912EF
:1002D100832E900056E09006C4F0900057E09006FF
:1002E100C5F0900058E09006C6F0900059E09006E5
:1002F100C7F0900043E0FCA3E0FDEC9006C8F0A33A
:10030100EDF0E4900066F0900066E0FF909F43936B
:10031100FE74462FF582E43400F583EEF09000661A
:10032100E004F0E0B410E002071C900045E064A78F
:1003310060030205239006F4E064A0600302046BED
:10034100A3E06405600302046B78B1E69006C3F094
:10035100E4900066F0900066E0FFC378B196501C0F
:1003610074A02FF8E624D0FE74C42FF582E434067D
:10037100F583EEF0900066E004F080D9900043E050
:10038100FCA3E0FDECFF78B1E6FE24C4F582E43481
:1003910006F583EFF074C52EF582E43406F583ED9E
:1003A100F0E4900066F0900066E0FF909F4393FEBA
:1003B10074462FF582E43400F583EEF0900066E098
:1003C10004F0E0B410E07E007F107D007B017A0034
:1003D1007956122DEC78B1E62404FEE433900067DF
:1003E100F0A3CEF090008C7401F0A37400F0A3741C
:1003F10067F0A37401F0A37400F0A37446F0A37432
:1004010001F0A37400F0A37456F07B017A0679C25F
:1004110012832E900056E0FF78B1E6FE24C6F582E5
:10042100E43406F583EFF0900057E0FF74C72EF532
:1004310082E43406F583EFF0900058E0FF74C82E93
:10044100F582E43406F583EFF0900059E0FF74C9BA
:100451002EF582E43406F583EFF07B017A0679BF4D
:10046100EE240BFDE433FC020E869000437490F001
:10047100A37406F0E49006C3F0900043E0FCA3E00F
:10048100FDEC9006C4F0A3EDF0E4900066F090005E
:1004910066E0FF909F4393FE74462FF582E434009B
:1004A100F583EEF0900066E004F0E0B410E07E0029
:1004B1007F107D007B017A007956122DEC90006748
:1004C100E4F0A37404F090008C7401F0A37400F0C4
:1004D100A37467F0A37401F0A37400F0A37446F051
:1004E100A37401F0A37400F0A37456F07B017A06A3
:1004F10079C212832E900056E09006C6F090005704
:10050100E09006C7F0900058E09006C8F0900059BE
:10051100E09006C9F07B017A0679BF7D0B7C000271
:100521000E86900045E064A860030206B29006F4CE
:10053100E064A060030205FAA3E06406600302051B
:10054100FA9006C37406F07B017A0679C4123F95CE
:10055100900043E0FCA3E0FDEC9006CAF0A3EDF0AF
:10056100E4900066F0900066E0FF909F4393FE7474
:10057100462FF582E43400F583EEF0900066E00446
:10058100F0E0B410E07E007F107D007B017A0079FD
:1005910056122DEC900067E4F0A3740AF090008CE1
:1005A1007401F0A37400F0A37467F0A37401F0A3C5
:1005B1007400F0A37446F0A37401F0A37400F0A3D7
:1005C1007456F07B017A0679C212832E900056E0B0
:1005D1009006CCF0900057E09006CDF0900058E0E6
:1005E1009006CEF0900059E09006CFF07B017A069C
:1005F10079BF7D117C00020E869000437490F0A3B8
:100601007406F0E49006C3F0900043E0FCA3E0FD23
:10061100EC9006C4F0A3EDF0E4900066F090006663
:10062100E0FF909F4393FE74462FF582E43400F57A
:1006310083EEF0900066E004F0E0B410E07E007F0D
:10064100107D007B017A007956122DEC900067E451
:10065100F0A37404F090008C7401F0A37400F0A373
:100661007467F0A37401F0A37400F0A37446F0A3BF
:100671007401F0A37400F0A37456F07B017A06793B
:10068100C212832E900056E09006C6F0900057E00B
:100691009006C7F0900058E09006C8F0900059E02D
:1006A1009006C9F07B017A0679BF7D0B7C00020EB2
:1006B10086900045E064AA60030208489006F4E0D1
:1006C10064A06003020790A3E0640860030207903E
:1006D1009006C37404F0A37416F0A37409F0A37414
:1006E10014F0A374A3F0900043E0FCA3E0FDEC90B0
:1006F10006C8F0A3EDF0E4900066F0900066E0FF1C
:10070100909F4393FE74462FF582E43400F583EE07
:10071100F0900066E004F0E0B410E07E007F107D10
:10072100007B017A007956122DEC900067E4F0A36A
:100731007408F090008C7401F0A37400F0A3746746
:10074100F0A37401F0A37400F0A37446F0A3740144
:10075100F0A37400F0A37456F07B017A0679C212FB
:10076100832E900056E09006CAF0900057E0900664
:10077100CBF0900058E09006CCF0900059E0900644
:10078100CDF07B017A0679BF7D0F7C00020E869049
:1007910000437490F0A37406F0E49006C3F0900057
:1007A10043E0FCA3E0FDEC9006C4F0A3EDF0E4907F
:1007B1000066F0900066E0FF909F4393FE74462F21
:1007C100F582E43400F583EEF0900066E004F0E099
:1007D100B410E07E007F107D007B017A0079561213
:1007E1002DEC900067E4F0A37404F090008C740188
:1007F100F0A37400F0A37467F0A37401F0A3740074
:10080100F0A37446F0A37401F0A37400F0A374562E
:10081100F07B017A0679C212832E900056E0900691
:10082100C6F0900057E09006C7F0900058E090069F
:10083100C8F0900059E09006C9F07B017A0679BFB3
:100841007D0B7C00020E86900045E064A4600302EB
:1008510009CC9006F4E064A06003020914A3E064EB
:100861000260030209149006C3F0900043E0FCA368
:10087100E0FDEC9006C4F0A3EDF0E4900066F0908A
:100881000066E0FF909F4393FE74462FF582E434A7
:1008910000F583EEF0900066E004F0E0B410E07E35
:1008A100007F107D007B017A007956122DEC9000BB
:1008B10067E4F0A37404F090008C7401F0A3740059
:1008C100F0A37467F0A37401F0A37400F0A374465D
:1008D100F0A37401F0A37400F0A37456F07B017AC5
:1008E1000679C212832E900056E09006C6F0900061
:1008F10057E09006C7F0900058E09006C8F09000CD
:1009010059E09006C9F07B017A0679BF7D0B7C0026
:10091100020E869000437490F0A37406F0E49006F2
:10092100C3F0900043E0FCA3E0FDEC9006C4F0A30B
:10093100EDF0E4900066F0900066E0FF909F439335
:10094100FE74462FF582E43400F583EEF0900066E4
:10095100E004F0E0B410E07E007F107D007B017ABE
:10096100007956122DEC900067E4F0A37404F09026
:10097100008C7401F0A37400F0A37467F0A37401F8
:10098100F0A37400F0A37446F0A37401F0A3740003
:10099100F0A37456F07B017A0679C212832E90007F
:1009A10056E09006C6F0900057E09006C7F0900020
:1009B10058E09006C8F0900059E09006C9F07B011C
:1009C1007A0679BF7D0B7C00020E86900045E064BB
:1009D100AC6003020B81783FE664016003020ACC3C
:1009E1009006C37402F078C2E60830E71F18E6FCEF
:1009F10008E6FDEC547FFEAF05C374FF9F747F9E34
:100A0100A3F0AF05C374FF9FA3F0801678C2E6FC84
:100A110008E6FD24FFEC347F9006C4F0AF05EF1427
:100A2100A3F0900043E0FCA3E0FDEC9006C6F0A328
:100A3100EDF0E4900066F0900066E0FF909F439334
:100A4100FE74462FF582E43400F583EEF0900066E3
:100A5100E004F0E0B410E07E007F107D007B017ABD
:100A6100007956122DEC900067E4F0A37406F09023
:100A7100008C7401F0A37400F0A37467F0A37401F7
:100A8100F0A37400F0A37446F0A37401F0A3740002
:100A9100F0A37456F07B017A0679C212832E90007E
:100AA10056E09006C8F0900057E09006C9F090001B
:100AB10058E09006CAF0900059E09006CBF07B0117
:100AC1007A0679BF7D0D7C00020E869006C3740202
:100AD100F0A374FFF0A3F0900043E0FCA3E0FDEC71
:100AE1009006C6F0A3EDF0E4900066F0900066E099
:100AF100FF909F4393FE74462FF582E43400F58303
:100B0100EEF0900066E004F0E0B410E07E007F10AB
:100B11007D007B017A007956122DEC900067E4F09C
:100B2100A37406F090008C7401F0A37400F0A37418
:100B310067F0A37401F0A37400F0A37446F0A374EA
:100B410001F0A37400F0A37456F07B017A0679C218
:100B510012832E900056E09006C8F0900057E09066
:100B610006C9F0900058E09006CAF0900059E09054
:100B710006CBF07B017A0679BF7D0D7C00020E86E3
:100B8100900045E064AF6003020C6F9006C37405EA
:100B9100F078BCE6B4012078C8E6FC08E6FDECA3D9
:100BA100F0AF05A3EFF078CAE6A3F078CBE6A3F0A7
:100BB10078BBE6A3F0800E9006C474FFF0A3F0A307
:100BC100F0A3F0A3F0900043E0FCA3E0FDEC90065D
:100BD100C9F0A3EDF0E4900066F0900066E0FF90AC
:100BE1009F4393FE74462FF582E43400F583EEF0C3
:100BF100900066E004F0E0B410E07E007F107D001C
:100C01007B017A007956122DEC900067E4F0A37411
:100C110009F090008C7401F0A37400F0A37467F0E4
:100C2100A37401F0A37400F0A37446F0A37401F05F
:100C3100A37400F0A37456F07B017A0679C2128383
:100C41002E900056E09006CBF0900057E09006CC35
:100C5100F0900058E09006CDF0900059E09006CE5B
:100C6100F07B017A0679BF7D107C00020E86900030
:100C710045E064AB6003020D2D9006C304F07831AA
:100C8100E6A3F0900043E0FCA3E0FDEC9006C5F084
:100C9100A3EDF0E4900066F0900066E0FF909F43C2
:100CA10093FE74462FF582E43400F583EEF0900054
:100CB10066E004F0E0B410E07E007F107D007B016F
:100CC1007A007956122DEC900067E4F0A37405F0D8
:100CD10090008C7401F0A37400F0A37467F0A37406
:100CE10001F0A37400F0A37446F0A37401F0A3749F
:100CF10000F0A37456F07B017A0679C212832E901C
:100D01000056E09006C7F0900057E09006C8F090BA
:100D11000058E09006C9F0900059E09006CAF07BB7
:100D2100017A0679BF7D0C7C00020E86E49006C331
:100D3100F0900043E0FCA3E0FDEC9006C4F0A3EDCD
:100D4100F0E4900066F0900066E0FF909F4393FE10
:100D510074462FF582E43400F583EEF0900066E0EE
:100D610004F0E0B410E07E007F107D007B017A008A
:100D71007956122DEC900067E4F0A37404F0900012
:100D81008C7401F0A37400F0A37467F0A37401F0F4
:100D9100A37400F0A37446F0A37401F0A37400F0EF
:100DA100A37456F07B017A0679C212832E90005605
:100DB100E09006C6F0900057E09006C7F09000580A
:100DC100E09006C8F0900059E09006C9F07B017AE6
:100DD1000679BF7D0B7C00020E86E49006C3F0907D
:100DE1000043E0FCA3E0FDEC9006C4F0A3EDF0E4C9
:100DF100900066F0900066E0FF909F4393FE74467A
:100E01002FF582E43400F583EEF0900066E004F003
:100E1100E0B410E07E007F107D007B017A007956FE
:100E2100122DEC900067E4F0A37404F090008C7430
:100E310001F0A37400F0A37467F0A37401F0A3742C
:100E410000F0A37446F0A37401F0A37400F0A3743E
:100E510056F07B017A0679C212832E900056E090FB
:100E610006C6F0900057E09006C7F0900058E09059
:100E710006C8F0900059E09006C9F07B017A067926
:100E8100BF7D0B7C00129DEC7E007F327D007B01DB
:070E91007A0679BF022DEC87
:109B5B009007C9EFF0A3EDF024FE601C24FE601DFE
:109B6B0024FC601924F8601024F0600C24E0600DD4
:109B7B0024C06009247F7008439020800343900128
:109B8B009007C9E06003B4010553F8F0801090070B
:109B9B00C9E0FF64026004EFB4030953F80F9007A8
:059BAB00CAE042F822AF
:1094DF00AE07AC05439102AF069007BDE0FD129BAE
:1094EF005BEC1460161460382402704BE4F5B2EE96
:1094FF007002800DEE6401703E801B75B201EE703C
:10950F00108BB043B30275B301439810439610808C
:10951F0026EE640170218BB143B40275B401801142
:10952F0075B2028BB0EAF5B143B30243B40275B31F
:0C953F0001439820439620D2AAD2AF220C
:109BB00090045EEFF0A3EDF024FE601C24FE601D17
:109BC00024FC601924F8601024F0600C24E0600D7F
:109BD00024C06009247F70084390208003439001D3
:109BE00090045EE06003B4010553F8F08010900427
:109BF0005EE0FF64026004EFB4030953F80F9004C1
:059C00005FE042F822C4
:10954B00AE07AC05439102AF0690045DE0FD129BA4
:10955B00B0EC1460161460382402704BE4F5B2EED4
:10956B007002800DEE6401703E801B75B201EE70CF
:10957B00108BB043B30275B3014398104396108020
:10958B0026EE640170218BB143B40275B4018011D6
:10959B0075B2028BB0EAF5B143B30243B40275B3B3
:0C95AB0001439820439620D2AAD2AF22A0
:0CA3610043910475E45A75E4A58FE522D1
:0FA31B0075E455E5E420E0F875E45A75E4A522F1
:107EC40000000000000000000000000000000000AE
:107ED400000000000000000000000000000000009E
:107EE400000000000000000000000000000000008E
:107EF400000000000000000000000000000000007E
:107F0400000000000000000000000000000000006D
:107F1400000000000000000000000000000000005D
:107F2400000000000000000000000000000000004D
:107F3400000000000000000000000000000000003D
:107F4400000000000000000000000000000000002D
:107F5400000000000000000000000000000000001D
:107F6400000000000000000000000000000000000D
:107F740000000000000000000000000000000000FD
:107F840000000000000000000000000000000000ED
:107F940000000000000000000000000000000000DD
:107FA40000000000000000000000000000000000CD
:107FB40000000000000000000000000000000000BD
:107FC40000000000000000000000000000000000AD
:107FD400000000000000000000000000000000009D
:107FE400000000000000000000000000000000008D
:107FF400000000000000000000000000000000007D
:10800400000000000000000000000000000000006C
:10801400000000000000000000000000000000005C
:10802400000000000000000000000000000000004C
:10803400000000000000000000000000000000003C
:0E687B009000C0EFF0A3EBF0A3EAF0A3E9F069
:1068890078D37C007D017BFF7A7E79C47E007F40CE
:1068990012288578137C017D017BFF7A7F79047E3C
:1068A900007F4012288578537C017D017BFF7A7F28
:1068B90079447E007F4012288578957C017D017B93
:1068C900FF7A7F79847E007F4012288578D57C0104
:1068D9007D017BFF7A7F79C47E007F8012288590B5
:1068E90000C0E0FFC394C04006EFD394C5400574CF
:1068F900FF026B129002557440F0E0FF7E007D3676
:106909007B017A0079D3122DEC900255E0FF7E00CD
:106919007D5C7B017A017913122DEC900255E0FF21
:10692900D39000C5E09F9000C4E09400402C9001F2
:1069390093E4F0A37440F07E017F539000C1A3E07B
:10694900FAA3E0AC02FDA3E0FAA3E0FB1281B9903F
:1069590000C4E4F0A37414F0801C9000C4E0FEA30A
:10696900E0FF78537C017D019000C1E0FBA3E0FAD0
:10697900A3E0F9122885900255E0FF9000C4E0FADF
:10698900A3E0FBC3EF9BFFE49AFEC00774532BF906
:10699900E43401FA7B017D00D007122DEC900255F9
:1069A900E0FF7E0078957C017D017B017A017953B6
:1069B900122885900255E0FF7E0078D57C017D0183
:1069C9007B017A0179531228859002AD7401F0A3F5
:1069D9007400F0A374D3F0900255E0FF9002B0E484
:1069E900F0A3EFF07B017A01799512903690025568
:1069F900E0FF7E0078567C027D017B017A01799562
:106A09001228859000C9A3A3E0FEA3E0FF900255D8
:106A1900E02456F9E43402A801FC7D019000C6E0A7
:106A2900FBA3E0FAA3E0F9122885900255E0FFE400
:106A3900FCFDFE9000C9E0F8A3E0F9A3E0FAA3E0A9
:106A49002FFFEE3AFEED39FDEC38FC9002A6122B31
:106A5900E07E017F53C0067C027D569002A6A3A367
:106A6900E0FEA3E0FBAA06D0061281B9900193E4E7
:106A7900F0A37414F09002AD7401F0A37401F0A3B3
:106A89007413F0900255E0FF9002B0E4F0A3EFF028
:106A99007B017A0179D5129036900193E0FEA3E04B
:106AA900FF900255E024D5F9E43401A801FC7D01E9
:106AB9007B017A017953122885900255E0FF9001F4
:106AC90094E02FFF900193E03400FEE4FCFD900276
:106AD900A6122BE09000CDA3E0FAA3E0AE02FFC01E
:106AE900067C017DD59002A6A3A3E0FEA3E0FBAA44
:106AF90006D0061281B99000D0E0FBA3E0FAA3E02A
:0D6B0900F9E475F0141229E3E4FFFEFDFC31
:016B1600225C
:10A2790067452301EFCDAB8998BADCFE10325476DD
:04A28900C3D2E1F06B
:10A22500AA06A907A801AC027D017BFF7AA279796C
:07A235007E007F1402288562
:086B170090044FEEF0A3EFF033
:106B1F0090044FE0FEA3E0F5828E83E0FCA3E0FD3E
:106B2F00A3E0FEA3E0FF7805122B5EC004C005C0F2
:106B3F0006C00790044FE0FEA3E0F5828E83E0FCD1
:106B4F00A3E0FDA3E0FEA3E0FF781B122B4BD003C5
:106B5F00D002D001D000EF4BFFEE4AFEED49FDEC25
:106B6F0048FC90044FE0FAA3E02410F582E43AF5D4
:106B7F0083E0F8A3E0F9A3E0FAA3E02FFFEA3EFEDB
:106B8F00E93DFDE83CFC900451E0F8A3E0F9A3E0F7
:106B9F00FAA3E02FFFEA3EFEE93DFDE83CFCEF24BF
:106BAF0099FFEE3479FEED3482FDEC345AFCC004CB
:106BBF00C005C006C00790044FE0FEA3E02404F513
:106BCF0082E43EF583E0FCA3E0FDA3E0FEA3E0FF3B
:106BDF00122B1F90044FE0FAA3E0240CF582E43A45
:106BEF00F583E0F8A3E0F9A3E0FAA3E05FFFEA5E24
:106BFF00FEE95DFDE85CFCC004C005C006C007905F
:106C0F00044FE0FEA3E02408F582E43EF583E0FCA8
:106C1F00A3E0FDA3E0FEA3E0FF90044FE0FAA3E0A2
:106C2F002404F582E43AF583E0F8A3E0F9A3E0FA4F
:106C3F00A3E05FFFEA5EFEE95DFDE85CFCD003D0F8
:106C4F0002D001D000EF4BFFEE4AFEED49FDEC48BC
:106C5F00FCD003D002D001D000EB2FFFEA3EFEE9BB
:106C6F003DFDE83CFC900455122BE090044FE0FAF8
:106C7F00A3E0FB240CF582E43AF583E0FCA3E0FDEE
:106C8F00A3E0FEA3E0FFEB2410F582E43AF58312B4
:106C9F002BE090044FE0FAA3E0FB2408F582E43ADE
:106CAF00F583E0FCA3E0FDA3E0FEA3E0FFEB240CE3
:106CBF00F582E43AF583122BE090044FE0FEA3E057
:106CCF002404F582E43EF583E0FCA3E0FDA3E0FE9F
:106CDF00A3E0FF781E122B5EC004C005C006C007DC
:106CEF0090044FE0FEA3E02404F582E43EF583E038
:106CFF00FCA3E0FDA3E0FEA3E0FF7802122B4BD034
:106D0F0003D002D001D000EF4BFFEE4AFEED49FD5C
:106D1F00EC48FC90044FE0FAA3E0FB2408F582E472
:106D2F003AF583122BE08B828A83E0FCA3E0FDA36C
:106D3F00E0FEA3E0FFEB2404F582E43AF583122B87
:106D4F00E0900455E0FCA3E0FDA3E0FEA3E0FF8B81
:066D5F00828A83022BE092
:0871C50090044FEEF0A3EFF07F
:1071CD0090044FE0FEA3E0F5828E83E0FCA3E0FD8A
:1071DD00A3E0FEA3E0FF7805122B5EC004C005C03E
:1071ED0006C00790044FE0FEA3E0F5828E83E0FC1D
:1071FD00A3E0FDA3E0FEA3E0FF781B122B4BD00311
:10720D00D002D001D000EF4BFFEE4AFEED49FDEC70
:10721D0048FC90044FE0FAA3E02410F582E43AF51F
:10722D0083E0F8A3E0F9A3E0FAA3E02FFFEA3EFE26
:10723D00E93DFDE83CFC900451E0F8A3E0F9A3E042
:10724D00FAA3E02FFFEA3EFEE93DFDE83CFCEF240A
:10725D00A1FFEE34EBFEED34D9FDEC346EFCC00431
:10726D00C005C006C00790044FE0FEA3E02408F55A
:10727D0082E43EF583E0FCA3E0FDA3E0FEA3E0FF86
:10728D0090044FE0FAA3E02404F582E43AF583E09C
:10729D00F8A3E0F9A3E0FAA3E06FFFEA6EFEE96D53
:1072AD00FDE86CFC90044FE0FAA3E0240CF582E4B9
:1072BD003AF583E0F8A3E0F9A3E0FAA3E06FFFEA63
:1072CD006EFEE96DFDE86CFCD003D002D001D0005C
:1072DD00EB2FFFEA3EFEE93DFDE83CFC9004551224
:1072ED002BE090044FE0FAA3E0FB240CF582E43A86
:1072FD00F583E0FCA3E0FDA3E0FEA3E0FFEB24108B
:10730D00F582E43AF583122BE090044FE0FAA3E006
:10731D00FB2408F582E43AF583E0FCA3E0FDA3E04D
:10732D00FEA3E0FFEB240CF582E43AF583122BE08B
:10733D0090044FE0FEA3E02404F582E43EF583E0E3
:10734D00FCA3E0FDA3E0FEA3E0FF781E122B5EC0C0
:10735D0004C005C006C00790044FE0FEA3E024045E
:10736D00F582E43EF583E0FCA3E0FDA3E0FEA3E09F
:10737D00FF7802122B4BD003D002D001D000EF4B7F
:10738D00FFEE4AFEED49FDEC48FC90044FE0FAA3F8
:10739D00E0FB2408F582E43AF583122BE08B828A18
:1073AD0083E0FCA3E0FDA3E0FEA3E0FFEB2404F5E6
:1073BD0082E43AF583122BE0900455E0FCA3E0FD46
:0D73CD00A3E0FEA3E0FF8B828A83022BE089
:0865DD0090044FEEF0A3EFF073
:1065E50090044FE0FEA3E0FF240CF582E43EF58322
:1065F500E0F8A3E0F9A3E0FAA3E0FBEF2404F582B9
:10660500E43EF583E0FCA3E0FDA3E0FEA3E05BFF31
:10661500EE5AFEED59FDEC58FCC004C005C006C09D
:106625000790044FE0FEA3E02408F582E43EF583DD
:10663500E0FCA3E0FDA3E0FEA3E0FF90044FE0FA39
:10664500A3E02404F582E43AF583E0F8A3E0F9A396
:10665500E0FAA3E05FFFEA5EFEE95DFDE85CFCD0E1
:1066650003D002D001D000EF4BFFEE4AFEED49FD0D
:10667500EC48FCC004C005C006C00790044FE0FE0E
:10668500A3E0240CF582E43EF583E0FCA3E0FDA342
:10669500E0FEA3E0FF90044FE0FAA3E02408F582B2
:1066A500E43AF583E0F8A3E0F9A3E0FAA3E05FFF9D
:1066B500EA5EFEE95DFDE85CFCD003D002D001D0C6
:1066C50000EB4FFFEA4EFEE94DFDE84CFCC004C06F
:1066D50005C006C00790044FE0FEA3E0F5828E8357
:1066E500E0FCA3E0FDA3E0FEA3E0FF7805122B5E2E
:1066F500C004C005C006C00790044FE0FEA3E0F546
:10670500828E83E0FCA3E0FDA3E0FEA3E0FF781BFF
:10671500122B4BD003D002D001D000EF4BFFEE4A35
:10672500FEED49FDEC48FC90044FE0FAA3E024108F
:10673500F582E43AF583E0F8A3E0F9A3E0FAA3E0F3
:106745002FFFEA3EFEE93DFDE83CFC900451E0F8F0
:10675500A3E0F9A3E0FAA3E02FFFEA3EFEE93DFD41
:10676500E83CFCEF24DCFFEE34BCFEED341BFDEC15
:10677500348FFCD003D002D001D000EF2BFFEE3ACE
:10678500FEED39FDEC38FCA3122BE090044FE0FA46
:10679500A3E0FB240CF582E43AF583E0FCA3E0FDDD
:1067A500A3E0FEA3E0FFEB2410F582E43AF58312A3
:1067B5002BE090044FE0FAA3E0FB2408F582E43ACD
:1067C500F583E0FCA3E0FDA3E0FEA3E0FFEB240CD2
:1067D500F582E43AF583122BE090044FE0FEA3E046
:1067E5002404F582E43EF583E0FCA3E0FDA3E0FE8E
:1067F500A3E0FF781E122B5EC004C005C006C007CB
:1068050090044FE0FEA3E02404F582E43EF583E026
:10681500FCA3E0FDA3E0FEA3E0FF7802122B4BD022
:1068250003D002D001D000EF4BFFEE4AFEED49FD4B
:10683500EC48FC90044FE0FAA3E0FB2408F582E461
:106845003AF583122BE08B828A83E0FCA3E0FDA35B
:10685500E0FEA3E0FFEB2404F582E43AF583122B76
:10686500E0900455E0FCA3E0FDA3E0FEA3E0FF8B70
:06687500828A83022BE081
:0873DA0090044FEEF0A3EFF068
:1073E20090044FE0FEA3E0F5828E83E0FCA3E0FD73
:1073F200A3E0FEA3E0FF7805122B5EC004C005C027
:1074020006C00790044FE0FEA3E0F5828E83E0FC05
:10741200A3E0FDA3E0FEA3E0FF781B122B4BD003F9
:10742200D002D001D000EF4BFFEE4AFEED49FDEC59
:1074320048FC90044FE0FAA3E02410F582E43AF508
:1074420083E0F8A3E0F9A3E0FAA3E02FFFEA3EFE0F
:10745200E93DFDE83CFC900451E0F8A3E0F9A3E02B
:10746200FAA3E02FFFEA3EFEE93DFDE83CFCEF24F3
:10747200D6FFEE34C1FEED3462FDEC34CAFCC0042A
:10748200C005C006C00790044FE0FEA3E02408F543
:1074920082E43EF583E0FCA3E0FDA3E0FEA3E0FF6F
:1074A20090044FE0FAA3E02404F582E43AF583E085
:1074B200F8A3E0F9A3E0FAA3E06FFFEA6EFEE96D3C
:1074C200FDE86CFC90044FE0FAA3E0240CF582E4A2
:1074D2003AF583E0F8A3E0F9A3E0FAA3E06FFFEA4C
:1074E2006EFEE96DFDE86CFCD003D002D001D00045
:1074F200EB2FFFEA3EFEE93DFDE83CFC900455120D
:107502002BE090044FE0FAA3E0FB240CF582E43A6E
:10751200F583E0FCA3E0FDA3E0FEA3E0FFEB241073
:10752200F582E43AF583122BE090044FE0FAA3E0EF
:10753200FB2408F582E43AF583E0FCA3E0FDA3E036
:10754200FEA3E0FFEB240CF582E43AF583122BE074
:1075520090044FE0FEA3E02404F582E43EF583E0CC
:10756200FCA3E0FDA3E0FEA3E0FF781E122B5EC0A9
:1075720004C005C006C00790044FE0FEA3E0240447
:10758200F582E43EF583E0FCA3E0FDA3E0FEA3E088
:10759200FF7802122B4BD003D002D001D000EF4B68
:1075A200FFEE4AFEED49FDEC48FC90044FE0FAA3E1
:1075B200E0FB2408F582E43AF583122BE08B828A01
:1075C20083E0FCA3E0FDA3E0FEA3E0FFEB2404F5CF
:1075D20082E43AF583122BE0900455E0FCA3E0FD2F
:0D75E200A3E0FEA3E0FF8B828A83022BE072
:0C0E98009002AAE0FEA3E0FF7C027DB601
:100EA4009002F8ECF0A3EDF09002F6EEF0A3EFF070
:100EB400AA06F97B0178FB7C037D017E007F141276
:100EC4002885E49002FAF09002FAE0FFC3941040FF
:100ED40003020FEDEF75F004A4FF9002F8E0FCA309
:100EE400E07B012FF9EC35F0FA1228ABFFE4FCFDAE
:100EF400FE7818122B5EC004C005C006C00790021D
:100F0400FAE075F004A4FF9002F8E0FCA3E02FF5EA
:100F140082EC35F0F583A3E0FFE4FCFDFE781012CB
:100F24002B5ED003D002D001D000EB2FFFEA3EFEAF
:100F3400E93DFDE83CFCA804A905AA06AB0790021C
:100F4400FAE075F004A4FF9002F8E0FCA3E02FF5AA
:100F540082EC35F0F583A3A3E0FEE4FCFD2BFFEA6D
:100F64003EFEED39FDEC38FCA804A905AA06AB0742
:100F74009002FAE075F004A4FF9002F8E0FCA3E00C
:100F84002FF582EC35F0F583A3A3A3E0FFE4FCFD89
:100F9400FEEB2FFFEE3AFEED39FDEC38FC9002FA41
:100FA400E0FB25E025E024FBF582E43402F583121E
:100FB4002BE07E037FFBC006C007EB25E025E02481
:100FC400FBF582E43402F583E0FCA3E0FDA3E0FE3C
:100FD400A3E0FF900451122BE0D007D006126B1748
:100FE4009002FAE004F0020ECB9002FA7410F09032
:100FF40002FAE0FF24F8540F25E025E024FBF582F3
:10100400E43402F583E0F8A3E0F9A3E0FAA3E0FBFB
:10101400EF24FD540F25E025E024FBF582E434029F
:10102400F583E0FCA3E0FDA3E0FEA3E06BFFEE6A22
:10103400FEED69FDEC68FC9002FAE024F2540F2501
:10104400E025E024FBF582E43402F583E0F8A3E034
:10105400F9A3E0FAA3E06FFFEA6EFEE96DFDE86C28
:10106400FC9002FAE0540F25E025E024FBF582E42D
:101074003402F583E0F8A3E0F9A3E0FAA3E06FFFFC
:10108400EA6EFEE96DFDE86CFC90044B122BE090D7
:10109400044BE0FCA3E0FDA3E0FEA3E0FF78011213
:1010A4002B5EC004C005C006C00790044BE0FCA33F
:1010B400E0FDA3E0FEA3E0FF781F122B4BD003D08A
:1010C40002D001D000EF4BFFEE4AFEED49FDEC48A3
:1010D400FC9002FAE0540FFB25E025E024FBF582A6
:1010E400E43402F583122BE07E037FFBC006C007C5
:1010F400EB25E025E024FBF582E43402F583E0FCF3
:10110400A3E0FDA3E0FEA3E0FF900451122BE0D086
:1011140007D006126B179002FAE004F0E0C39414AF
:101124005003020FF39002FA7414F09002FAE0FFF5
:1011340024F8540F25E025E024FBF582E43402F57D
:1011440083E0F8A3E0F9A3E0FAA3E0FBEF24FD5465
:101154000F25E025E024FBF582E43402F583E0FC6E
:10116400A3E0FDA3E0FEA3E06BFFEE6AFEED69FDE4
:10117400EC68FC9002FAE024F2540F25E025E02408
:10118400FBF582E43402F583E0F8A3E0F9A3E0FA86
:10119400A3E06FFFEA6EFEE96DFDE86CFC9002FAD5
:1011A400E0540F25E025E024FBF582E43402F583C6
:1011B400E0F8A3E0F9A3E0FAA3E06FFFEA6EFEE92A
:1011C4006DFDE86CFC90044B122BE090044BE0FCAA
:1011D400A3E0FDA3E0FEA3E0FF7801122B5EC004B0
:1011E400C005C006C00790044BE0FCA3E0FDA3E0EB
:1011F400FEA3E0FF781F122B4BD003D002D001D006
:1012040000EF4BFFEE4AFEED49FDEC48FC9002FA7C
:10121400E0540FFB25E025E024FBF582E43402F5DD
:1012240083122BE07E037FFBC006C007EB25E0257D
:10123400E024FBF582E43402F583E0FCA3E0FDA3A3
:10124400E0FEA3E0FF900451122BE0D007D0061279
:1012540071C59002FAE004F0E0C39428500302112F
:101264002F9002FA7428F09002FAE0FF24F8540F49
:1012740025E025E024FBF582E43402F583E0F8A3BD
:10128400E0F9A3E0FAA3E0FBEF24FD540F25E025E9
:10129400E024FBF582E43402F583E0FCA3E0FDA343
:1012A400E0FEA3E06BFFEE6AFEED69FDEC68FC90E6
:1012B40002FAE024F2540F25E025E024FBF582E451
:1012C4003402F583E0F8A3E0F9A3E0FAA3E06FFFAA
:1012D400EA6EFEE96DFDE86CFC9002FAE0540F251D
:1012E400E025E024FBF582E43402F583E0F8A3E092
:1012F400F9A3E0FAA3E06FFFEA6EFEE96DFDE86C86
:10130400FC90044B122BE090044BE0FCA3E0FDA303
:10131400E0FEA3E0FF7801122B5EC004C005C00606
:10132400C00790044BE0FCA3E0FDA3E0FEA3E0FFB4
:10133400781F122B4BD003D002D001D000EF4BFF0B
:10134400EE4AFEED49FDEC48FC9002FAE0540FFB36
:1013540025E025E024FBF582E43402F583122BE03A
:101364007E037FFBC006C007EB25E025E024FBF5E8
:1013740082E43402F583E0FCA3E0FDA3E0FEA3E0F5
:10138400FF900451122BE0D007D0061265DD9002C5
:10139400FAE004F0E0C3943C500302126B9002FAAA
:1013A400743CF09002FAE0FF24F8540F25E025E0A5
:1013B40024FBF582E43402F583E0F8A3E0F9A3E02A
:1013C400FAA3E0FBEF24FD540F25E025E024FBF510
:1013D40082E43402F583E0FCA3E0FDA3E0FEA3E095
:1013E4006BFFEE6AFEED69FDEC68FC9002FAE02406
:1013F400F2540F25E025E024FBF582E43402F58362
:10140400E0F8A3E0F9A3E0FAA3E06FFFEA6EFEE9D7
:101414006DFDE86CFC9002FAE0540F25E025E02411
:10142400FBF582E43402F583E0F8A3E0F9A3E0FAE3
:10143400A3E06FFFEA6EFEE96DFDE86CFC90044BDF
:10144400122BE090044BE0FCA3E0FDA3E0FEA3E03C
:10145400FF7801122B5EC004C005C006C0079004CB
:101464004BE0FCA3E0FDA3E0FEA3E0FF781F122BFA
:101474004BD003D002D001D000EF4BFFEE4AFEED7B
:1014840049FDEC48FC9002FAE0540FFB25E025E00E
:1014940024FBF582E43402F583122BE07E037FFB08
:1014A400C006C007EB25E025E024FBF582E4340206
:1014B400F583E0FCA3E0FDA3E0FEA3E0FF9004516C
:1014C400122BE0D007D0061273DA9002FAE004F08F
:1014D400E0C3945050030213A79003FBE0F8A3E089
:1014E400F9A3E0FAA3E0FBC000C001C002C003906E
:1014F40002F6E0FEA3E0AA06F97B0190000112289F
:10150400C4FFE4FCFDFE7810122B5EC004C005C0CD
:1015140006C0079002F6E0FEA3E0F5828E83E0FFAA
:10152400E4FCFDFE7818122B5ED003D002D001D06B
:1015340000EF2BFFEE3AFEED39FDEC38FCC004C0A1
:1015440005C006C0079002F6E0FEA3E0AA06F97BF8
:10155400019000021228C4FEE4FCFDD003D002D0A6
:1015640001D0002BFFEA3EFEED39FDEC38FCC0044F
:10157400C005C006C0079002F6E0FEA3E0AA06F983
:101584007B019000031228C4FFE4FCFDFED003D0CD
:1015940002D001D000EB2FFFEE3AFEED39FDEC381E
:1015A400FCD003D002D001D000EB2FFFEA3EFEE9CD
:1015B4003DFDE83CFC9003FB122BE09003FFE0F8B8
:1015C400A3E0F9A3E0FAA3E0FBC000C001C002C09D
:1015D400039002F6E0FEA3E0AA06F97B0190000561
:1015E4001228C4FFE4FCFDFE7810122B5EC004C078
:1015F40005C006C0079000041228C4FFE4FCFDFEE9
:101604007818122B5ED003D002D001D000EF2BFF4C
:10161400EE3AFEED39FDEC38FCC004C005C006C04E
:10162400079002F6E0FEA3E0AA06F97B019000060B
:101634001228C4FEE4FCFDD003D002D001D0002B5C
:10164400FFEA3EFEED39FDEC38FCC004C005C006DF
:10165400C0079002F6E0FEA3E0AA06F97B01900021
:10166400071228C4FFE4FCFDFED003D002D001D051
:1016740000EB2FFFEE3AFEED39FDEC38FCD003D041
:1016840002D001D000EB2FFFEA3EFEE93DFDE83C2D
:10169400FC9003FF122BE0900403E0F8A3E0F9A30D
:1016A400E0FAA3E0FBC000C001C002C0039002F650
:1016B400E0FEA3E0AA06F97B019000091228C4FF0A
:1016C400E4FCFDFE7810122B5EC004C005C006C009
:1016D400079000081228C4FFE4FCFDFE7818122BC2
:1016E4005ED003D002D001D000EF2BFFEE3AFEED26
:1016F40039FDEC38FCC004C005C006C0079002F6F2
:10170400E0FEA3E0AA06F97B0190000A1228C4FEB9
:10171400E4FCFDD003D002D001D0002BFFEA3EFE52
:10172400ED39FDEC38FCC004C005C006C0079002CA
:10173400F6E0FEA3E0AA06F97B0190000B1228C490
:10174400FFE4FCFDFED003D002D001D000EB2FFF5C
:10175400EE3AFEED39FDEC38FCD003D002D001D0D6
:1017640000EB2FFFEA3EFEE93DFDE83CFC9004035C
:10177400122BE0900407E0F8A3E0F9A3E0FAA3E059
:10178400FBC000C001C002C0039002F6E0FEA3E06B
:10179400AA06F97B0190000D1228C4FFE4FCFDFEAB
:1017A4007810122B5EC004C005C006C00790000C60
:1017B4001228C4FFE4FCFDFE7818122B5ED003D07F
:1017C40002D001D000EF2BFFEE3AFEED39FDEC38EC
:1017D400FCC004C005C006C0079002F6E0FEA3E00A
:1017E400AA06F97B0190000E1228C4FEE4FCFDD089
:1017F40003D002D001D0002BFFEA3EFEED39FDEC10
:1018040038FCC004C005C006C0079002F6E0FEA381
:10181400E0AA06F97B0190000F1228C4FFE4FCFD46
:10182400FED003D002D001D000EB2FFFEE3AFEED44
:1018340039FDEC38FCD003D002D001D000EB2FFFEF
:10184400EA3EFEE93DFDE83CFC900407122BE090E3
:10185400040BE0F8A3E0F9A3E0FAA3E0FBC000C0A6
:1018640001C002C0039002F6E0FEA3E0AA06F97BE1
:10187400019000111228C4FFE4FCFDFE7810122B25
:101884005EC004C005C006C0079000101228C4FF43
:10189400E4FCFDFE7818122B5ED003D002D001D0F8
:1018A40000EF2BFFEE3AFEED39FDEC38FCC004C02E
:1018B40005C006C0079002F6E0FEA3E0AA06F97B85
:1018C400019000121228C4FEE4FCFDD003D002D023
:1018D40001D0002BFFEA3EFEED39FDEC38FCC004DC
:1018E400C005C006C0079002F6E0FEA3E0AA06F910
:1018F4007B019000131228C4FFE4FCFDFED003D04A
:1019040002D001D000EB2FFFEE3AFEED39FDEC38AA
:10191400FCD003D002D001D000EB2FFFEA3EFEE959
:101924003DFDE83CFC90040B122BE09002F6E0FE37
:10193400A3E0AA06F8AC027D017B017A0379FB7E61
:06194400007F141228854B
:01194A00227A
:1081B9009002AAEEF0A3EFF0A3ECF0A3EDF0A3EA8E
:0481C900F0A3EBF044
:1081CD009002AEE0FEA3E07803C333CE33CED8F9F0
:1081DD00FFE4FCFD9002B2122BE09002B07440F06F
:1081ED00A37414F09002AAE0FEA3E0FF12A2259062
:1081FD0002B0E0FFC39002AFE09F9002AEE09400AA
:10820D0040339002AAE0FEA3E0FFA3E0FCA3E0FD53
:10821D00120EA49002B0E0FF7E009002ADE02FF0B0
:10822D009002ACE03EF0C39002AFE09FF09002AE42
:10823D00E09EF080BA9002B0E0FF7E007D007B01F1
:10824D007A0279B6122DEC9002AEE0FEA3E0FF901B
:10825D0002ACE0FCA3E0AA04F97B0178B67C027DB8
:10826D00011228859002AEE0FEA3E0FF24B6F58250
:10827D00E43402F5837480F09002B0E0FD13131323
:10828D00541FFCC3ED9CFDC3EF9DEE9400401512F1
:10829D000E989002B0E0FF7E007D007B017A02799E
:1082AD00B6122DEC9002B2E0FCA3E0FDA3E0FEA31C
:1082BD00E0FF7818122B4B9002B0E0FB24B2F58250
:1082CD00E43402F583EFF09002B2E0FCA3E0FDA3ED
:1082DD00E0FEA3E0FF7810122B4B74B32BF582E474
:1082ED003402F583EFF09002B2E0FCA3E0FDA3E0D1
:1082FD00FEA3E0FF7808122B4B9002B0E0FB24B4F4
:10830D00F582E43402F583EFF09002B2A3A3A3E06B
:10831D00FF74B52BF582E43402F583EFF0120E985D
:01832D00222D
:09A3390043C70112A34243C7020D
:05A342000000000022F4
:10A1C500EFD394004011E4FDFC0DBD00010CBC076C
:07A1D500F8BDC9F51F80E988
:01A1DC002260
:09A39A0012A33953C7FE02A342CD
:0CA36D0053C7FE12A33C43C70102A342E9
:09A3A30012A33953C7FD02A342C5
:1093FE0053C7FD0000000000000000000000000048
:10940E0000000053C1FEE5CE5480FF43C7020000AA
:10941E00000000000000000000000000000000003E
:10942E0000000053C7FD0000000000000000000017
:10943E00000000000000000000000000000000001E
:10944E00000000000000000000000000000000000E
:10945E0000000000000000000000000000000000FE
:03946E0043C101F6
:0194710022D8
:109E3000EBF0A3EAF0A3E9F012A39A7FA6129E47E3
:079E4000ECFF129E47AF0585
:109E4700E4FE53C7FD12A342EF30E70543C7018085
:109E57000353C7FE12A33C0000000000EF25E0FFFC
:089E67000EEEB408DD0293FECB
:109EEB009007A4129E30E4FDFCD39007A3E09D9055
:109EFB0007A2E09C401D9007A4E0FBA3E0FAA3E0BF
:109F0B00F98D828C831228C4FF129E470DBD000170
:069F1B000C80D602A36DCC
:108EDB00900785E0FFA3E0900788CFF0A3EFF0AFFA
:108EEB0005A3ECF0A3EFF0A3EBF0A3EAF0A3E9F0FA
:108EFB00900788E0FEA3E0FFD39404EE94004010AB
:108F0B0090078BE05403FD74049D900787F0800558
:108F1B00900787EFF090078CE0FBA3E0FAA3E0F952
:108F2B0090078AE0FCA3E0FD900787E0FF9007A283
:108F3B00E4F0A3EFF0129EEB7F0A12A1C590078716
:108F4B00E0FFFD7C0090078DEC8DF012298C9007D3
:108F5B008BE02DF090078AE03CF0C3900789E09FEF
:108F6B00FF900788E09400FEF0A3EFF0D39400EE9F
:078F7B0094004003028EFB8D
:018F820022CC
:108CB70090004D7401F0E4A3F090004A129E301228
:108CC700A39A7FA7129E47E4FDFC900048E0FEA30D
:108CD700E0D39DEE9C5003028D6E43C701E4FF5322
:108CE700C7FD0053C1FEE5CE548090004DF043C14F
:108CF70001E06007A3E04401F0800790004EE054D4
:108D0700FEF043C702EFC39407500890004EE0FE01
:108D170025E0F00FEFB408C70000000000000000D6
:108D2700000053C7FD90004EE0FF90004AE0FBA310
:108D3700E0FAA3E0F98D828C83EF12290353C7FE73
:108D470043C7020000000000000000000000000010
:108D570000000000000000000053C7FD12A3420DF1
:0D8D6700BD00010C028CD112A3A302A36D6C
:10A15F00439001E59030E3FB43900643912043C1C8
:0BA16F000243C20243C10143C20122AF
:108497000048008D0001008D009000010048009009
